:020000040000FA
:100000000F0EC16E070EB46EFF0ED36EFF0E936E11
:10001000000E946E000E816210EF00F06DEF00F0A4
:10002000010E816216EF00F06DEF00F0020E8162AA
:100030001CEF00F06DEF00F0030E816222EF00F084
:1000400070EF00F0040E816228EF00F06DEF00F019
:10005000050E81622EEF00F070EF00F0060E816257
:1000600034EF00F070EF00F0070E81623AEF00F01D
:100070006AEF00F0080E816240EF00F06DEF00F0D3
:10008000090E816246EF00F070EF00F00A0E816207
:100090004CEF00F070EF00F00B0E816252EF00F0B9
:1000A0006AEF00F00C0E816258EF00F070EF00F084
:1000B0000D0E81625EEF00F06AEF00F00E0E8162BD
:1000C00064EF00F06AEF00F00F0E816274EF00F051
:1000D0006AEF00F08B8074EF00F08B8274EF00F019
:1000E0008B808B8274EF00F08B908B920AEF00F084
:0200F00000000E
:00000001FF
