:020000040000FA
:100000000F0EC16E070EB46EFF0ED36E9368926A28
:1000100089908992000E816210EF00F06AEF00F083
:10002000010E816216EF00F06AEF00F0020E8162AD
:100030001CEF00F06AEF00F0030E816222EF00F087
:100040006DEF00F0040E816228EF00F06AEF00F01F
:10005000050E81622EEF00F06DEF00F0060E81625A
:1000600034EF00F06DEF00F0070E81623AEF00F020
:1000700070EF00F0080E816240EF00F06AEF00F0D0
:10008000090E816246EF00F06AEF00F00A0E81620D
:100090004CEF00F06DEF00F00B0E816252EF00F0BC
:1000A00070EF00F00C0E816258EF00F06AEF00F084
:1000B0000D0E81625EEF00F070EF00F00E0E8162B7
:1000C00064EF00F070EF00F00F0E816270EF00F04F
:1000D00070EF00F0898008EF00F0898208EF00F0EF
:0800E0008990899208EF00F0FD
:0200E800000016
:00000001FF
