:020000040000FA
:100000000F0EC16E070EB46EFF0ED36E92809282F9
:10001000928492869490949280A019EF00F080A22E
:1000200026EF00F08B8280B48B8080B68B8045EF0A
:1000300000F080A236EF00F080A43FEF00F08B824A
:1000400080A645EF00F08B8045EF00F080B42FEFE5
:1000500000F080A645EF00F08B8245EF00F08B8228
:1000600080A645EF00F08B8045EF00F080A445EFBF
:1000700000F080A645EF00F08B8245EF00F080A6EF
:1000800045EF00F08B8245EF00F08B908B920CEFE8
:0200900000F07E
:0200920000006C
:00000001FF
