:020000040000FA
:10000000EF0ED36E5B6B5C6B5D6B5E6B5F6B926ACE
:10001000936A9480956A000E036E400E8A6E000EFD
:10002000046E400E896E000E056E400E8C6E82A02E
:1000300017EF00F055EC00F082A017EF00F082B04F
:100040001FEF00F003C0E8FFE84656EC00F08A6EB0
:10005000032A090E036417EF00F02FEF00F0000EE3
:10006000036E400E8A6E04C0E8FFE84661EC00F0C3
:10007000896E042A090E046417EF00F040EF00F0C7
:10008000000E036E400E8A6E000E046E400E896EE6
:1000900005C0E8FFE8466CEC00F08C6E052A090EFE
:1000A000056417EF00F00BEF00F01200F926790C51
:1000B000240C300C190C120C020C780C000C100CD7
:1000C000400CF926790C240C300C190C120C020C83
:1000D000780C000C100C400CF926790C240C300C18
:0C00E000190C120C020C780C000C100C17
:0200EC00000012
:020000040030CA
:0100000000FF
:0100010028D6
:010002005F9E
:010003003CC0
:01000500D327
:010006008574
:010008000FE8
:01000900C036
:01000A000FE6
:01000B00E014
:01000C000FE4
:01000D0040B2
:00000001FF
